:100000000A128A11D92FFF1B0D2883137F1883171B
:100010000008840A0319FF0A080000308A00040857
:10002000840A82070034543449344D344534203432
:1000300020342034203420342034453456344534A0
:100040004E34543420342034533450344534453401
:1000500044340D340A340034203420342034203425
:1000600020342034203420342034203420342034F0
:100070002034203420342034003453344534543474
:100080005F34543449344D344534203420342034E2
:100090002034203420342034203400345634493481
:1000A000453457345F344C344F3447342034203493
:1000B000203420342034203420342034003443349D
:1000C0004C344534413452345F344C344F3447342B
:1000D00020342034203420342034203420340034A0
:1000E00044344F3457344E344C344F344134443418
:1000F0005F344C344F34473420342034203420349F
:100100000034543449344D344534203420342034C0
:1001100020342034453456342034203420345334B1
:100120005034003423342034543449344D3445346D
:1001300020342034203420342034453456342034C4
:100140005334503400344E344F345F344C344F34D5
:1001500047345334283445344D34503454345934AE
:100160002934003443344C3445344134523445341A
:1001700044342E342E342E342E342E342E34003487
:1001800044344F3457344E344C344F344134443477
:100190004534443400344834483420344D344D34EC
:1001A00020345334533400344F344E340034473405
:1001B0004E34003447343134003447343234003460
:1001C000473433340034473434340034473435341E
:1001D0000034473452340034433430340034003473
:1001E000003400346F30F4008030F5008030F600C9
:1001F0000A128A156B210A128A114630F4000A127B
:100200008A1512200A128A114630F7000A128A153E
:1002100057230A128A113E30831203135E06031D10
:10022000122913294229083055065604031D19299D
:100230001A291F290130D5000030D600342956086C
:10024000803AFF0080307F02031D282907305502C5
:1002500003182B292C293429013083120313D507C5
:100260000318D60A0030D607013083120313CD07D6
:100270000318CE0A0030CE070A128A15FE250A128C
:100280008A118B293D305E06031D472948296629BE
:10029000083055065604031D4E294F2950291A29A6
:1002A0005608803AFF0080307F02031D5929023032
:1002B0005502031C5C295D293429FF308312031386
:1002C000D5070318D60AFF30D60734293B305E061F
:1002D000031D6B296C2977290130CD070318CE0A3D
:1002E0000030CE070830D5000030D6003C2937302A
:1002F0005E06031D7C297D298B29F00101300A123D
:100300008A152E220A128A11013083120313D70094
:100310000030D8008B290330F000831203135508F6
:100320000A168A1187270A128A11A03EF4000030AB
:10033000F500C930F6000A128A156B210A128A11DB
:1003400000300A168A11E1270A128A1171088312F5
:100350000313C5007008C4004408F0004508F1000C
:10036000F201F30100300A128A154C270A128A1191
:10037000730883120313A7007208A6007108A50072
:100380007008A4004130A3002530A2004730A1002E
:10039000AE30A0000A128A110F260A128A118312A7
:1003A00003132308BD002208BC002108BB0020085D
:1003B000BA000A128A1588250A128A1183120313B9
:1003C0003B08D2003A08D1000030520263300319D2
:1003D00051020318EC29ED291B2ACF30F7000A300F
:1003E000F0000030F1005208F3005108F2000A1248
:1003F0008A159B220A128A117008303E0A168A1149
:1004000076270A128A11CE30F7000A30F000003049
:10041000F100831203135208F3005108F2000A128C
:100420008A15D3220A128A117008303E0A168A11E0
:1004300076270A128A11080083120313B401B5014A
:100440005C08031D242A252A162B4E08803AFF003B
:1004500080307F02031D2E2A01304D02031C312AF9
:10046000322A162B0130F1008030F2000A128A1570
:1004700074200A128A1183120313B001B101FC2AFD
:1004800078308312031334063504031D482A492AA1
:100490004F2AB401B5010A30CD000030CE00B201C0
:1004A000B301831203133208203E840034080A1279
:1004B0008A1540210A128A118313800001308312A9
:1004C0000313B4070318B50A0030B5070130B207AB
:1004D0000318B30A0030B3073308803AFF008030B6
:1004E0007F02031D752A08303202031C782A792AFC
:1004F000512A83120313A9012030F1000030F200C9
:100500000A128A1574200A128A112830F1008030EC
:10051000F2000A128A1574200A128A118312031338
:1005200034080A128A1540210A128A118312031311
:10053000AA000130B4070318B50A0030B507340823
:100540000A128A1540210A128A1183120313AB0082
:100550000130B4070318B50A0030B507AC012A30E2
:10056000F1000030F2000A128A1574200A128A1172
:100570002530F1008030F2000A128A1574200A1228
:100580008A118312031334080A128A1540210A12B1
:100590008A1183120313AD000130B4070318B50AA2
:1005A0000030B50734080A128A1540210A128A1150
:1005B00083120313AE000130B4070318B50A0030EC
:1005C000B507AF012D30F1000030F2000A128A1594
:1005D00074200A128A111730F1008030F2000A12DA
:1005E0008A1574200A128A11013083120313B0078E
:1005F0000318B10A0030B1073108803AF7004E08FD
:10060000803A7702031D062B4D083002031C092B8C
:100610000A2B402AAE30F4008030F5008130F6001D
:100620000A128A156B210A128A11302B83120313C6
:10063000CD01CE011A30F4008030F500C030F60054
:100640000A128A156B210A128A119130F400803047
:10065000F5008230F6000A128A156B210A128A11FF
:100660000B30F9006730F8004D30F700F70B362BF0
:10067000F80B362BF90B362BF00101300A128A15D4
:100680002E220A128A11013083120313D700003080
:10069000D800080083120313A701AE012B30F40029
:1006A0000A128A1512200A128A11B930F400803019
:1006B000F5008030F6000A128A156B210A128A11A1
:1006C0002B30F7000A128A1557230A128A110130BB
:1006D0000A128A15EB200A128A1183120313DE0014
:1006E0003D305E06031D752B762B812B02302E06C6
:1006F000031D7B2B7C2B7E2BAE01332C0130AE07F0
:10070000332C3E305E06031D862B872BF52B2E08DF
:10071000031D8B2B8C2BA92B2B080A168A11AD27B6
:100720000A128A1183120313A80017302806031D2A
:100730009A2B9B2B9D2BA8019F2B0130A8072808E3
:100740000A128A1564220A128A1183120313AB005B
:10075000ED2B2E03031DAD2BAE2BCB2B2C080A1635
:100760008A11AD270A128A1183120313A9003B30A4
:100770002906031DBC2BBD2BBF2BA901C12B0130AA
:10078000A90729080A128A1564220A128A118312FB
:100790000313AC00ED2B02302E06031DD02BD12B02
:1007A000ED2B2D080A168A11AD270A128A11831221
:1007B0000313AA003B302A06031DDF2BE02BE22B9C
:1007C000AA01E42B0130AA072A080A128A1564221A
:1007D0000A128A1183120313AD002B30F7000A129C
:1007E0008A1557230A128A11332C2F305E06031DF7
:1007F000FA2BFB2B092CF00101300A128A152E224C
:100800000A128A11013083120313D7000030D80076
:100810009D2C37305E06031D0E2C0F2C332C2B081D
:10082000F10002300A168A11C3270A128A118312B4
:1008300003132C08F10001300A168A11C3270A128B
:100840008A11831203132D08F10000300A168A1151
:10085000C3270A128A11F00101300A128A152E22CA
:100860000A128A11022C8312031327080319392C48
:100870003A2C7E2C2E08031D3E2C3F2C502CC030D1
:10088000F70020300A168A1176270A128A11C13021
:10089000F70020300A168A1176270A128A11852C51
:1008A0002E03031D542C552C662CC330F70020302A
:1008B0000A168A1176270A128A11C430F7002030EE
:1008C0000A168A1176270A128A11852C02302E0602
:1008D000031D6B2C6C2C7D2CC630F70020300A16C3
:1008E0008A1176270A128A11C730F70020300A16BB
:1008F0008A1176270A128A11852C852C2B30F70055
:100900000A128A1557230A128A1183120313270821
:1009100003198B2C8D2C01308E2C0030A7000D304C
:10092000FB00AF30FA00B630F900F90B952CFA0B4A
:10093000952CFB0B952C0000672B080083120313EA
:10094000B301B4015C08031DA62CA72CE32D4E08AF
:10095000803AFF0080307F02031DB02C01304D0231
:10096000031CB32CB42CE32D8030F4008030F50050
:100970008030F6000A128A156B210A128A110C3097
:10098000F0008312031333080A168A1187270A120C
:100990008A1183120313B0003008F900FA017908B4
:1009A000B5007A08B600B101B20183120313310811
:1009B000203E840035080A128A1540210A128A1145
:1009C00083138000013083120313B5070318B60A9E
:1009D0000030B6070130B1070318B20A0030B20781
:1009E0003208803AFF0080307F02031DF92C083066
:1009F0003102031CFC2CFD2CD52C83120313A901FE
:100A000035080A128A1540210A128A11831203132B
:100A1000AA000130B5070318B60A0030B60735083A
:100A20000A128A1540210A128A1183120313AB009D
:100A30000130B5070318B60A0030B607AC01350817
:100A40000A128A1540210A128A1183120313AD007B
:100A50000130B5070318B60A0030B60735080A1288
:100A60008A1540210A128A1183120313AE00013045
:100A7000B5070318B60A0030B607AF01C030F7005B
:100A80003308303E0A168A1176270A128A1120305E
:100A9000F4000030F500C230F6000A128A156B210E
:100AA0000A128A112A30F4000030F500CB30F6002B
:100AB0000A128A156B210A128A112D30F4000030B7
:100AC000F500CE30F6000A128A156B210A128A113F
:100AD00001300A128A15EB200A128A1183120313BD
:100AE000DE002F305E06031D762D772D852DF0015B
:100AF00001300A128A152E220A128A11013083123D
:100B00000313D7000030D8000E2E3E305E06031DC2
:100B10008A2D8B2DC62D4D08FF3EF9004E08031877
:100B2000013EFF3EFA003408803AFB007A08803A22
:100B30007B02031D9D2D790833020318A02DA12DE2
:100B4000B82D831203133408803AFF0080307F02EF
:100B5000031DAC2D093033020318AF2DB02DB82D75
:100B6000013083120313B3070318B40A0030B4072B
:100B70000630FB001330FA00AD30F900F90BBE2D42
:100B8000FA0BBE2DFB0BBE2DC52DBF2C3D305E06D6
:100B9000031DCB2DCC2DE22D3408803AFF00803090
:100BA0007F02031DD52D01303302031CD82DD92D12
:100BB000B82DFF3083120313B3070318B40AFF30B4
:100BC000B407B82D682D83120313DD01CD01CE01CA
:100BD000F00101300A128A152E220A128A11913070
:100BE000F4008030F5008230F6000A128A156B217D
:100BF0000A128A110B30FB006730FA004D30F90001
:100C0000F90B002EFA0B002EFB0B002EF001013029
:100C10000A128A152E220A128A117E2D08008312CA
:100C200003132708B1008030B1052708A800280762
:100C3000B800A61F1C2E1D2E1E2E381438080319AE
:100C4000222E232E332E380A031D272E282E302E37
:100C50000030A7000030A6000030A5000030A4003E
:100C6000A617A7013B2E0030A7000030A6000030D9
:100C7000A5000030A40023088039B1062308A8008D
:100C80002807B900A21F452E462E472E39143908D1
:100C900003194B2E4C2E5C2E390A031D502E512E5B
:100CA000592E0030A3000030A2000030A100003017
:100CB000A000A217A301642E0030A3000030A20000
:100CC0000030A1000030A0002308220421042004E9
:100CD000031D6B2E6C2E832E0030A7000030A60063
:100CE0000030A5000030A4008030A6047F30A704A7
:100CF0003108A7042708A3002608A2002508A100A0
:100D00002408A000D82F3808031D872E882E912E86
:100D10000030A3000030A2000030A1000030A0008D
:100D2000D82F3808A800A9012908AB0039082802E3
:100D3000AA00031CAB032A087F3EB2002B0803184D
:100D4000013E003EB3002708B0002608AF0025088A
:100D5000AE002408AD000030A7000030A60000302F
:100D6000A5000030A4000030B7000030B60000300D
:100D7000B5000030B400B901052F39080319C12EA0
:100D8000C22EE22E0130A8000310AD0DAE0DAF0D46
:100D9000B00DA80BC42E0130A8000310A40DA50DA2
:100DA000A60DA70DA80BCD2EB71FD72ED82ED92E46
:100DB00024140130A8000310B40DB50DB60DB70D05
:100DC000A80BDB2E23083002031DF02E22082F0271
:100DD000031DF02E21082E02031DF02E20082D02E7
:100DE000031CF32EF42E032F37172008AD02210821
:100DF000031C210FAE022208031C220FAF0223089E
:100E0000031C230FB0020130B9071A303902031C4A
:100E10000A2F0B2FBD2E30082F042E042D0403198A
:100E2000122F132F322F3414322F0130A800031049
:100E3000A40DA50DA60DA70DA80B172FB71F212FC9
:100E4000222F232F24140130A8000310B40DB50D58
:100E5000B60DB70DA80B252FFF30B2070318B30A44
:100E6000FF30B307A61F352F362F152FB901B71F37
:100E70003A2F3B2F572FFF303405A800FF303505A0
:100E8000A900FF303605AA007F303705AB002B08DC
:100E90002A042904280403194E2F4F2F522F013002
:100EA000B900572F241C552F562F572F4F2F390875
:100EB00003195B2F5C2F8D2F0130A407003003181E
:100EC0000130A507003003180130A60700300318D1
:100ED0000130A707271C6D2F6E2F8D2F2408A80027
:100EE0002508A9002608AA002708AB000130AC009D
:100EF0002B0DAB0CAA0CA90CA80CAC0B782F2B0853
:100F0000A7002A08A6002908A5002808A400013087
:100F1000B2070318B30A0030B3073308803AFF0062
:100F200080307F02031D962FFF303202031C992F61
:100F30009A2FA82FFF3083120313B2000030B300A2
:100F40000030A7000030A6000030A5000030A4004B
:100F5000831203133308803AFF0080307F02031DA1
:100F6000B32F013032020318B62FB72FC42F8312CC
:100F70000313B201B3010030A7000030A600003017
:100F8000A5000030A400B101831203133208B80099
:100F9000381CCB2FCC2FCE2FA617D02F7F30A605F5
:100FA0003808A8000310280CA7003108A7047A2EDF
:100FB00008008313BE30FD000030FE00D430FF0077
:100FC000A03084000A168A119E270A128A117030F6
:100FD000FD001630FE00EB30FF00693084000A1679
:100FE0008A119E270A128A114930840069300A1634
:100FF0008A11F2260A128A1183010A128A15002C1C
:1010000000300A128A1515210A128A15F4007F3061
:10101000F4057408F10000300A168A11C3270A1279
:101020008A1508007408840002300A128A151521F6
:101030000A128A1583138000740A840001300A1290
:101040008A1515210A128A15831380007408023E3E
:10105000840000300A128A1515210A128A1583139A
:1010600080000800F0000A168A115C270A128A150F
:101070008316031391150A168A115C270A128A1522
:10108000831203131308F1007003031D4828492835
:101090004D288316031391165028831603139112BB
:1010A000111671080800F0000A168A1169270A1241
:1010B0008A158316031391150A168A1169270A12D5
:1010C0008A15831203131308F1007003031D6928A6
:1010D0006A286E288316031391167128831603134A
:1010E000911211167108080089287208FF00710812
:1010F00084000A128A1103200A128A150A168A111C
:1011000046270A128A150130F1070318F20A003047
:10111000F207720883120313FF00710884000A1299
:101120008A1103200A128A15003A031D982899286B
:1011300075280800FA000A168A1115270A128A155E
:10114000A0300A168A113B270A128A157A080A1655
:101150008A113B270A128A1577080A168A113B273B
:101160000A128A150A168A111E270A128A151430C5
:10117000F9007930F800F80BBB28F90BBB28C02820
:101180000800013083120313DC00DD01A030F400FD
:101190008030F500C230F6000A128A156B210A125F
:1011A0008A150B30F9006730F8004D30F700F70B67
:1011B000D728F80BD728F90BD728F00101300A12ED
:1011C0008A152E220A128A15013083120313D700C2
:1011D0000030D8000800F1007108031DF028F12844
:1011E000F6288312031306083F3914293F3083126F
:1011F00003130605F0003F3070060319002901298A
:1012000008296F080319052906290829EF01F12883
:101210003F300605F0003F307006031D10291129EC
:1012200013290130EF003F300800F2000A168A113E
:1012300003270A128A15D0300A168A1130270A129B
:101240008A1572080A168A1130270A128A150A1698
:101250008A11FA260A128A15D1300A168A11302705
:101260000A128A1500300A128A1532200A128A15CB
:10127000F3000A168A110C270A128A15730808004F
:10128000F2000A168A1115270A128A15A0300A16CA
:101290008A113B270A128A1572080A168A113B27FF
:1012A0000A128A150A168A1127270A128A15A130EE
:1012B0000A168A113B270A128A1500300A128A156B
:1012C00053200A128A15F3000A168A111E270A12E1
:1012D0008A1573080800F00176080A128A152E2272
:1012E0000A128A158929F001F00A7508FF007408AE
:1012F00084000A128A1103200A128A150A128A151A
:101300002E220A128A150130F4070318F50A00305C
:10131000F507750883120313FF00740884000A128E
:101320008A1103200A128A15003A031D9829992967
:101330007329080083120313981718162008A400B5
:101340002108A5002208A6002308A70004300310E6
:10135000A40DA50DA60DA70DFF3E031DA729270867
:10136000F3002608F2002508F1002408F0000130FF
:10137000F7003130F6002D30F5000030F4000A128D
:101380008A1524250A128A157008FF3E8316031356
:10139000990008008312031394152008A400210863
:1013A000A5002208A6002308A70002300310A40D00
:1013B000A50DA60DA70DFF3E031DD6292708F30096
:1013C0002608F2002508F1002408F0000130F7009B
:1013D0003130F6002D30F5000030F4000A128A1585
:1013E00024250A128A157008FF3E83160313930002
:1013F0008312031394160800831203139415200814
:10140000A4002108A5002208A6002308A700023096
:101410000310A40DA50DA60DA70DFF3E031D082A60
:101420002708F3002608F2002508F1002408F00040
:101430000130F7003130F6002D30F5000030F400B7
:101440000A128A1524250A128A157008FF3E83168F
:10145000031393008312031394160800F30070180B
:10146000322A362A831203130915392A83120313E9
:1014700009117308F03988008914A630F100F10BC6
:101480003F2A000083120313891073080F39F100FB
:1014900003300310F10DFF3E031D492A0310710DA7
:1014A00088008914A630F100F10B542A0000831241
:1014B000031389101B30F2009E30F100F10B5E2AFD
:1014C000F20B5E2A00000800F8000A30F00000303D
:1014D000F100780883120313A000A1012008F20094
:1014E0002108F3000A128A15A9230A128A15700826
:1014F00083120313A2007108A3000A30F000003029
:10150000F1007808A400A5012408F2002508F300E2
:101510000A128A15C1240A128A157008831203134D
:10152000A60003300310A60DFF3E031D922A0310F0
:10153000260D22040800700871040319A02AA12AAC
:10154000CE2A0130F400AD2A01300310F00DF10D68
:10155000FF3E031DA52A0130F407F11FB02AB12A6E
:10156000A42A71087302031DB72A70087202031CB3
:10157000BA2ABB2AC12A7008F2027108031CF303BD
:10158000F30201300310F10CF00CFF3E031DC22AE0
:101590000130F402031DCD2ACE2AB12A7308F100CE
:1015A0007208F0000800F401F501700871040319D5
:1015B000DA2ADB2A102B0130F600E72A013003106B
:1015C000F00DF10DFF3E031DDF2A0130F607F11F7C
:1015D000EA2AEB2ADE2A01300310F40DF50DFF3E56
:1015E000031DEC2A71087302031DF82A70087202A9
:1015F000031CFB2AFC2A032B7008F2027108031C4F
:10160000F303F302741401300310F10CF00CFF3EED
:10161000031D042B0130F602031D0F2B102BEB2AA8
:101620007508F1007408F0000800003083120313FD
:10163000A3000130A2008630A100A030A0000A1251
:101640008A15CA210A128A150A128A1500200A125E
:101650008A150A168A1151270A128A150030831238
:101660000313A3000130A2008630A100A030A00027
:101670000A128A15FC210A128A15003083120313FC
:10168000A3000030A2002530A1008030A0000A1283
:101690008A159A210A128A150A168A11DE260A125A
:1016A0008A150A168A11E4260A128A150800770894
:1016B000840083130008F80004300310F80CFF3E88
:1016C000031D5D2B78080F39303E83120313DF00B2
:1016D0007708840000080F39303EE0003A30E1001E
:1016E000770A84000008F80004300310F80CFF3E6D
:1016F000031D752B78080F39303EE200770A84000D
:1017000000080F39303EE3003A30E4007708023E2B
:1017100084000008F80004300310F80CFF3E031D9D
:101720008C2B78080F39303EE5007708023E8400A4
:1017300000080F39303EE600E7015F30F40000306A
:10174000F500C030F6000A128A156B210A128A15BC
:101750000800F501F31FAD2BAE2BB52BF209F309F1
:10176000F20A0319F30A0130F500F11FB82BB92B67
:10177000BE2BF009F109F00A0319F10A700871048F
:101780000319C32BC42BF12B0130F400D02B0130F3
:101790000310F00DF10DFF3E031DC82B0130F407BF
:1017A000F11FD32BD42BC72B71087302031DDA2B27
:1017B00070087202031CDD2BDE2BE42B7008F20292
:1017C0007108031CF303F30201300310F10CF00C59
:1017D000FF3E031DE52B0130F402031DF02BF12B1E
:1017E000D42B75080319F52BF62BFB2BF209F30903
:1017F000F20A0319F30A7308F1007208F0000800F6
:101800000A128A1515230A128A1501300A128A153E
:10181000EB200A128A1583120313DE0057085804BE
:10182000031D132C142C1A2C0A128A11F2200A12EE
:101830008A15052C57035804031D1F2C202C262C19
:101840000A128A15A5260A128A15052C0230570697
:101850005804031D2C2C2D2C332C0A128A119E2483
:101860000A128A15052C033057065804031D392C1B
:101870003A2C402C0A128A15C1200A128A15052C0E
:10188000043057065804031D462C472C4D2C0A12D1
:101890008A111C220A128A15052C05305706580495
:1018A000031D532C542C5A2C0A128A114A230A1253
:1018B0008A15052C052C0A128A110028C330F50060
:1018C000CD30F400F40B622CF50B622CF0013330B8
:1018D0000A128A152E220A128A151B30F5009E3034
:1018E000F400F40B712CF50B712C0000F001333077
:1018F0000A128A152E220A128A15A630F400F40B59
:101900007F2C0000F00133300A128A152E220A12B1
:101910008A158A2C8B2C0000F00102300A128A15DD
:101920002E220A128A15A630F400F40B952C000022
:10193000F00128300A128A152E220A128A15A630C2
:10194000F400F40BA12C0000F00101300A128A15FA
:101950002E220A128A150430F5003D30F400F40BF3
:10196000AF2CF50BAF2CB42CF0010C300A128A15F9
:101970002E220A128A15A630F400F40BBD2C0000AA
:101980000800F501F11FC52CC62CCD2CF009F1097A
:10199000F00A0319F10A0130F500F31FD02CD12C05
:1019A000D82CF209F309F20A0319F30A0130F506FB
:1019B000F601F701700871040319DF2CE02C152DD6
:1019C0000130F400EC2C01300310F00DF10DFF3E5E
:1019D000031DE42C0130F407F11FEF2CF02CE32C55
:1019E00001300310F60DF70DFF3E031DF12C7108B9
:1019F0007302031DFD2C70087202031C002D012DC3
:101A0000082D7008F2027108031CF303F302761428
:101A100001300310F10CF00CFF3E031D092D0130C5
:101A2000F402031D142D152DF02C75080319192D22
:101A30001A2D1F2DF609F709F60A0319F70A770878
:101A4000F1007608F00008000030FC000030FB00D8
:101A50000030FA000030F900730872047104700459
:101A60000319332D342D7F2D0130FD00422D01301F
:101A7000F8000310F00DF10DF20DF30DF80B392DF8
:101A80000130FD07F31F452D462D372D0130F8009D
:101A90000310F90DFA0DFB0DFC0DF80B482D730822
:101AA0007702031D5D2D72087602031D5D2D7108FE
:101AB0007502031D5D2D70087402031C602D612DDD
:101AC000702D7008F4027108031C710FF502720882
:101AD000031C720FF6027308031C730FF7027914CC
:101AE00001300310F30CF20CF10CF00CFF3E031D5F
:101AF000712D0130FD02031D7E2D7F2D462D7C08AA
:101B0000F3007B08F2007A08F1007908F000080081
:101B10000310831203133C0D3D0DC3004308031D46
:101B2000922D932D9C2D0030BD000030BC00003064
:101B3000BB000030BA00FD2D3A08BE003B08BF00D4
:101B40003C08C0003D08C1001F300310C10CC00C90
:101B5000BF0CBE0CFF3E031DA52D3E08C200BC17E6
:101B6000FF30BA05FF30BB05FF30BC050030BD05B6
:101B70009630C302C31FBD2DBE2DD62D4308803A1B
:101B8000973E0318C42DC52DC62D932D013003108B
:101B9000BD0CBC0CBB0CBA0CFF3E031DC72D0130A5
:101BA000C307031DD42DD52DC62DED2D20304302A6
:101BB000031CDB2DDC2DE82D932D0130BE0003101E
:101BC000BA0DBB0DBC0DBD0DBE0BDF2D0130C30228
:101BD0004308031DEC2DED2DDD2D42080319F12DD9
:101BE000F22DFD2DBA09BB09BC09BD09BA0A0319BA
:101BF000BB0A0319BC0A0319BD0A08007830831216
:101C000003135D06031D052E062E112E0130CB0792
:101C10000318CC0A0030CC07DD010A30CD000030BB
:101C2000CE00FB01FC017B085F3E840083130008AB
:101C3000F700831203135D080A128A159A200A120C
:101C40008A15013083120313DD070130FB070318E7
:101C5000FC0A0030FC077C08803AFF0080307F02DD
:101C6000031D342E08307B02031C372E382E132E12
:101C70000330F0008312031355080A168A118727D0
:101C80000A128A15A03E840083130008F70083120D
:101C900003135D080A128A159A200A128A15013068
:101CA00083120313DD070330F00055080A168A116A
:101CB00087270A128A15A13E840083130008F700C3
:101CC000831203135D080A128A159A200A128A15D4
:101CD000013083120313DD070A30F0000030F100F9
:101CE0005208F3005108F2000A128A15D3220A1290
:101CF0008A157008303EF700831203135D080A123C
:101D00008A159A200A128A15013083120313DD07FF
:101D10000A30F0000030F1005208F3005108F200E0
:101D20000A128A159B220A128A157008303EF700A3
:101D3000831203135D080A128A159A200A128A1563
:101D4000013083120313DD0708008130F7002A30C9
:101D50000A168A1176270A128A1583120313540869
:101D6000803AFF0080307F02031DB82E03305302FB
:101D70000318BB2EBC2ED42E3E30831203135E06F6
:101D8000031DC32EC42ED42E0130EE070130D3071D
:101D90000318D40A0030D407F00101300A128A1562
:101DA0002E220A128A154B2F831203135408803AED
:101DB000FF0080307F02031DDF2E01305302031C21
:101DC000E22EE32EFB2E3D30831203135E06031D2D
:101DD000EA2EEB2EFB2E0130EE02FF30D307031864
:101DE000D40AFF30D407F00101300A128A152E22DE
:101DF0000A128A154B2F3730831203135E06031D18
:101E0000022F032F142FF00101300A128A152E22FF
:101E10000A128A15831203136E08F900FA01790871
:101E2000D7007A08D8004B2F2F305E06031D192FDC
:101E30001A2F272FF00101300A128A152E220A12BA
:101E40008A1583120313DC01D701D8014B2F5308E5
:101E5000693E840083130008F4000030031D8030C5
:101E6000F5008330F6000A128A156B210A128A15D2
:101E70008312031353086A3E840083130008F4009E
:101E80000030031D8030F500C330F6000A128A15B9
:101E90006B210A128A150800F80078080319512FDF
:101EA000522F662FF31F552F562F662F7009FA00F9
:101EB0007109FB007209FC007309FD00FA0A03199D
:101EC000FB0A0319FC0A0319FD0A6E2F7308FD00B3
:101ED0007208FC007108FB007008FA0073087204B5
:101EE00071047004031D752F762F7F2F0030F300CF
:101EF0000030F2000030F1000030F000FF2F96308B
:101F0000F9008D2F0130F90701300310FD0CFC0C96
:101F1000FB0CFA0CFF3E031D852FFE307D05031DD3
:101F2000922F932F822FAD2F0130F9070130FA073E
:101F3000003003180130FB07003003180130FC07A4
:101F4000003003180130FD0701300310FD0CFC0CBC
:101F5000FB0CFA0CFF3E031DA52FFF307D05031D72
:101F6000B22FB32F942FBF2F0130F9020130F400AC
:101F70000310FA0DFB0DFC0DFD0DF40BB82FFC1B2F
:101F8000C22FC32FC92F023079020318C82FC92FBF
:101F9000B42F7918CC2FCD2FD52FFF30FA05FF3075
:101FA000FB057F30FC05FF30FD050310F90C7908B7
:101FB000F400F501F601F70118300310F40DF50DEA
:101FC000F60DF70DFF3E031DDD2F7408FA047508AA
:101FD000FB047608FC047708FD0478080319F12F48
:101FE000F22FF72FF31FF52FF62FF72FFD177D0890
:101FF000F3007C08F2007B08F1007A08F00008008A
:102DBC008316031306083F38860008008316031396
:102DCC009F17831203131F1408003C344D345E34D8
:102DDC002B341A340234013464008001840A040652
:102DEC00031900340406F32E0A168A115C270A16FE
:102DFC008A1183160313111408000A168A115C2712
:102E0C000A168A1183160313111408000A168A1164
:102E1C005C270A168A1183160313111508000A166B
:102E2C008A1169270A168A118316031311140800D4
:102E3C000A168A1169270A168A11831603131115AB
:102E4C0008000A168A1169270A168A1183160313B9
:102E5C0011140800F0000A168A115C270A168A1150
:102E6C0070088312031393000800F0000A168A11ED
:102E7C0069270A168A11700883120313930008003D
:102E8C00F00070088312031399000C1E4E2F4F2F65
:102E9C004B2F0C120800831603138801091189109B
:102EAC000A128A155E240A168A1108008316031367
:102EBC001419612F622F5C2F11081F39031D672F06
:102ECC00682F5C2F08008316031314196E2F6F2FB5
:102EDC00692F11081F39031D742F752F692F0800D6
:102EEC00F800F00177080A128A152E220A168A11A8
:102EFC00F001F00A78080A128A152E220A168A1195
:102F0C000800F200F101721C8C2F8D2F8F2F70088E
:102F1C00F1070310F00D0310F20C7208031D972F2C
:102F2C00982F892F710808007E088A007F0882007C
:102F3C000A168A119A270A168A118000840A040834
:102F4C007D0603190034FF0A0319FE0A9E2FF500B3
:102F5C000F307505F3000A30F0007508F4000430EA
:102F6C000310F40CFF3E031DB62F74080A168A11C9
:102F7C0087270A168A1173070800F2000A168A11AD
:102F8C0003270A168A11D0300A168A1130270A161E
:102F9C008A1172080A168A1130270A168A117108CA
:102FAC000A168A1130270A168A110A168A110C275A
:102FBC000A168A110800F5007508F2000330031098
:102FCC00F20DFF3E031DE52F831203131F08C739B3
:102FDC0072049F001F151F19F42FF52FF12F1E08D7
:102FEC00F400831603131E08F3007408F100730831
:042FFC00F0000800D9
:08400000FF3FFF3FFF3FFF3FC0
:02400E00FB3F76
:00000001FF
